{
  "contractName": "TimeTrack",
  "abi": [
    {
      "constant": true,
      "inputs": [],
      "name": "employeeIdCount",
      "outputs": [
        {
          "name": "",
          "type": "uint256"
        }
      ],
      "payable": false,
      "stateMutability": "view",
      "type": "function"
    },
    {
      "constant": true,
      "inputs": [
        {
          "name": "",
          "type": "uint256"
        }
      ],
      "name": "employeeAddresses",
      "outputs": [
        {
          "name": "",
          "type": "address"
        }
      ],
      "payable": false,
      "stateMutability": "view",
      "type": "function"
    },
    {
      "constant": true,
      "inputs": [],
      "name": "employer",
      "outputs": [
        {
          "name": "",
          "type": "address"
        }
      ],
      "payable": false,
      "stateMutability": "view",
      "type": "function"
    },
    {
      "constant": true,
      "inputs": [
        {
          "name": "",
          "type": "address"
        }
      ],
      "name": "employees",
      "outputs": [
        {
          "name": "employeeID",
          "type": "uint256"
        },
        {
          "name": "employeeAddress",
          "type": "address"
        },
        {
          "name": "isActive",
          "type": "bool"
        },
        {
          "components": [
            {
              "name": "punchAlert",
              "type": "bool"
            },
            {
              "name": "punchIn",
              "type": "uint256"
            },
            {
              "name": "punchOut",
              "type": "uint256"
            },
            {
              "name": "breakViolationCount",
              "type": "uint256"
            }
          ],
          "name": "card",
          "type": "tuple"
        }
      ],
      "payable": false,
      "stateMutability": "view",
      "type": "function"
    },
    {
      "inputs": [],
      "payable": false,
      "stateMutability": "nonpayable",
      "type": "constructor"
    },
    {
      "constant": false,
      "inputs": [
        {
          "name": "addr",
          "type": "address"
        }
      ],
      "name": "removeAuthorization",
      "outputs": [],
      "payable": false,
      "stateMutability": "nonpayable",
      "type": "function"
    },
    {
      "constant": false,
      "inputs": [],
      "name": "addEmployee",
      "outputs": [
        {
          "name": "_success",
          "type": "bool"
        }
      ],
      "payable": false,
      "stateMutability": "nonpayable",
      "type": "function"
    },
    {
      "constant": true,
      "inputs": [],
      "name": "displayNow",
      "outputs": [
        {
          "name": "",
          "type": "uint256"
        }
      ],
      "payable": false,
      "stateMutability": "view",
      "type": "function"
    },
    {
      "constant": true,
      "inputs": [],
      "name": "displayViolation",
      "outputs": [
        {
          "name": "",
          "type": "uint256"
        }
      ],
      "payable": false,
      "stateMutability": "view",
      "type": "function"
    },
    {
      "constant": true,
      "inputs": [],
      "name": "breakViolationAlert",
      "outputs": [
        {
          "name": "",
          "type": "string"
        }
      ],
      "payable": false,
      "stateMutability": "pure",
      "type": "function"
    },
    {
      "constant": false,
      "inputs": [],
      "name": "doPunchIN",
      "outputs": [
        {
          "name": "_success",
          "type": "bool"
        }
      ],
      "payable": false,
      "stateMutability": "nonpayable",
      "type": "function"
    },
    {
      "constant": false,
      "inputs": [],
      "name": "doPunchOUT",
      "outputs": [
        {
          "name": "_success",
          "type": "bool"
        }
      ],
      "payable": false,
      "stateMutability": "nonpayable",
      "type": "function"
    },
    {
      "constant": true,
      "inputs": [],
      "name": "displayBreakViolation",
      "outputs": [
        {
          "name": "",
          "type": "uint256"
        }
      ],
      "payable": false,
      "stateMutability": "view",
      "type": "function"
    },
    {
      "constant": true,
      "inputs": [],
      "name": "getEmployees",
      "outputs": [
        {
          "name": "",
          "type": "address[]"
        }
      ],
      "payable": false,
      "stateMutability": "view",
      "type": "function"
    }
  ],
  "bytecode": "0x6060604052341561000f57600080fd5b336000806101000a81548173ffffffffffffffffffffffffffffffffffffffff021916908373ffffffffffffffffffffffffffffffffffffffff160217905550600060028190555061007261007864010000000002610a5c176401000000009004565b50610303565b6000600560003373ffffffffffffffffffffffffffffffffffffffff1673ffffffffffffffffffffffffffffffffffffffff16815260200190815260200160002060010160149054906101000a900460ff161515156100d657600080fd5b60806040519081016040528060025481526020013373ffffffffffffffffffffffffffffffffffffffff16815260200160011515815260200160806040519081016040528060001515815260200160008152602001600081526020016000815250815250600560003373ffffffffffffffffffffffffffffffffffffffff1673ffffffffffffffffffffffffffffffffffffffff1681526020019081526020016000206000820151816000015560208201518160010160006101000a81548173ffffffffffffffffffffffffffffffffffffffff021916908373ffffffffffffffffffffffffffffffffffffffff16021790555060408201518160010160146101000a81548160ff02191690831515021790555060608201518160020160008201518160000160006101000a81548160ff02191690831515021790555060208201518160010155604082015181600201556060820151816003015550509050506002600081548092919060010191905055506001805480600101828161025c91906102b2565b9160005260206000209001600033909190916101000a81548173ffffffffffffffffffffffffffffffffffffffff021916908373ffffffffffffffffffffffffffffffffffffffff160217905550506001905090565b8154818355818115116102d9578183600052602060002091820191016102d891906102de565b5b505050565b61030091905b808211156102fc5760008160009055506001016102e4565b5090565b90565b610f3f806103126000396000f3006060604052600436106100c5576000357c0100000000000000000000000000000000000000000000000000000000900463ffffffff16806306720a39146100ca5780633be0d865146100f35780633d0350f31461011c5780634abefa36146101495780635d36bc8b146101b35780637521720b146101dc5780638f5d63431461023f57806394f3f81d1461026c578063a0e7b01d146102a5578063ae200e7914610333578063b0816def14610388578063b5e8f6a4146103b5578063d0678947146103de575b600080fd5b34156100d557600080fd5b6100dd610470565b6040518082815260200191505060405180910390f35b34156100fe57600080fd5b610106610476565b6040518082815260200191505060405180910390f35b341561012757600080fd5b61012f6104c3565b604051808215151515815260200191505060405180910390f35b341561015457600080fd5b61015c61068d565b6040518080602001828103825283818151815260200191508051906020019060200280838360005b8381101561019f578082015181840152602081019050610184565b505050509050019250505060405180910390f35b34156101be57600080fd5b6101c6610721565b6040518082815260200191505060405180910390f35b34156101e757600080fd5b6101fd600480803590602001909190505061072b565b604051808273ffffffffffffffffffffffffffffffffffffffff1673ffffffffffffffffffffffffffffffffffffffff16815260200191505060405180910390f35b341561024a57600080fd5b61025261076a565b604051808215151515815260200191505060405180910390f35b341561027757600080fd5b6102a3600480803573ffffffffffffffffffffffffffffffffffffffff1690602001909190505061093b565b005b34156102b057600080fd5b6102b86109f4565b6040518080602001828103825283818151815260200191508051906020019080838360005b838110156102f85780820151818401526020810190506102dd565b50505050905090810190601f1680156103255780820380516001836020036101000a031916815260200191505b509250505060405180910390f35b341561033e57600080fd5b610346610a37565b604051808273ffffffffffffffffffffffffffffffffffffffff1673ffffffffffffffffffffffffffffffffffffffff16815260200191505060405180910390f35b341561039357600080fd5b61039b610a5c565b604051808215151515815260200191505060405180910390f35b34156103c057600080fd5b6103c8610c96565b6040518082815260200191505060405180910390f35b34156103e957600080fd5b610415600480803573ffffffffffffffffffffffffffffffffffffffff16906020019091905050610ca0565b604051808581526020018473ffffffffffffffffffffffffffffffffffffffff1673ffffffffffffffffffffffffffffffffffffffff1681526020018315151515815260200182815260200194505050505060405180910390f35b60025481565b6000600560003373ffffffffffffffffffffffffffffffffffffffff1673ffffffffffffffffffffffffffffffffffffffff16815260200190815260200160002060020160030154905090565b60003373ffffffffffffffffffffffffffffffffffffffff166000809054906101000a900473ffffffffffffffffffffffffffffffffffffffff1673ffffffffffffffffffffffffffffffffffffffff161415801561056e5750600560003373ffffffffffffffffffffffffffffffffffffffff1673ffffffffffffffffffffffffffffffffffffffff16815260200190815260200160002060010160149054906101000a900460ff165b80156105ca5750600560003373ffffffffffffffffffffffffffffffffffffffff1673ffffffffffffffffffffffffffffffffffffffff16815260200190815260200160002060020160000160009054906101000a900460ff16155b15156105d557600080fd5b42600381905550600354600560003373ffffffffffffffffffffffffffffffffffffffff1673ffffffffffffffffffffffffffffffffffffffff168152602001908152602001600020600201600101819055506001600560003373ffffffffffffffffffffffffffffffffffffffff1673ffffffffffffffffffffffffffffffffffffffff16815260200190815260200160002060020160000160006101000a81548160ff0219169083151502179055506001905090565b610695610e9a565b600180548060200260200160405190810160405280929190818152602001828054801561071757602002820191906000526020600020905b8160009054906101000a900473ffffffffffffffffffffffffffffffffffffffff1673ffffffffffffffffffffffffffffffffffffffff16815260200190600101908083116106cd575b5050505050905090565b6000600454905090565b60018181548110151561073a57fe5b90600052602060002090016000915054906101000a900473ffffffffffffffffffffffffffffffffffffffff1681565b60003373ffffffffffffffffffffffffffffffffffffffff166000809054906101000a900473ffffffffffffffffffffffffffffffffffffffff1673ffffffffffffffffffffffffffffffffffffffff16141580156108155750600560003373ffffffffffffffffffffffffffffffffffffffff1673ffffffffffffffffffffffffffffffffffffffff16815260200190815260200160002060010160149054906101000a900460ff165b80156108705750600560003373ffffffffffffffffffffffffffffffffffffffff1673ffffffffffffffffffffffffffffffffffffffff16815260200190815260200160002060020160000160009054906101000a900460ff165b151561087b57600080fd5b42600381905550600354600560003373ffffffffffffffffffffffffffffffffffffffff1673ffffffffffffffffffffffffffffffffffffffff168152602001908152602001600020600201600201819055506000600560003373ffffffffffffffffffffffffffffffffffffffff1673ffffffffffffffffffffffffffffffffffffffff16815260200190815260200160002060020160000160006101000a81548160ff021916908315150217905550610934610d41565b6001905090565b6000809054906101000a900473ffffffffffffffffffffffffffffffffffffffff1673ffffffffffffffffffffffffffffffffffffffff163373ffffffffffffffffffffffffffffffffffffffff1614151561099657600080fd5b6000600560008373ffffffffffffffffffffffffffffffffffffffff1673ffffffffffffffffffffffffffffffffffffffff16815260200190815260200160002060010160146101000a81548160ff02191690831515021790555050565b6109fc610eae565b6040805190810160405280601781526020017f427265616b2052756c65732056696f6c61746564212121000000000000000000815250905090565b6000809054906101000a900473ffffffffffffffffffffffffffffffffffffffff1681565b6000600560003373ffffffffffffffffffffffffffffffffffffffff1673ffffffffffffffffffffffffffffffffffffffff16815260200190815260200160002060010160149054906101000a900460ff16151515610aba57600080fd5b60806040519081016040528060025481526020013373ffffffffffffffffffffffffffffffffffffffff16815260200160011515815260200160806040519081016040528060001515815260200160008152602001600081526020016000815250815250600560003373ffffffffffffffffffffffffffffffffffffffff1673ffffffffffffffffffffffffffffffffffffffff1681526020019081526020016000206000820151816000015560208201518160010160006101000a81548173ffffffffffffffffffffffffffffffffffffffff021916908373ffffffffffffffffffffffffffffffffffffffff16021790555060408201518160010160146101000a81548160ff02191690831515021790555060608201518160020160008201518160000160006101000a81548160ff021916908315150217905550602082015181600101556040820151816002015560608201518160030155505090505060026000815480929190600101919050555060018054806001018281610c409190610ec2565b9160005260206000209001600033909190916101000a81548173ffffffffffffffffffffffffffffffffffffffff021916908373ffffffffffffffffffffffffffffffffffffffff160217905550506001905090565b6000600354905090565b60056020528060005260406000206000915090508060000154908060010160009054906101000a900473ffffffffffffffffffffffffffffffffffffffff16908060010160149054906101000a900460ff169080600201608060405190810160405290816000820160009054906101000a900460ff161515151581526020016001820154815260200160028201548152602001600382015481525050905084565b6000806000600560003373ffffffffffffffffffffffffffffffffffffffff1673ffffffffffffffffffffffffffffffffffffffff168152602001908152602001600020600201600201549250600560003373ffffffffffffffffffffffffffffffffffffffff1673ffffffffffffffffffffffffffffffffffffffff1681526020019081526020016000206002016001015491508183111515610de457600080fd5b8183039050610708811015610e4957600560003373ffffffffffffffffffffffffffffffffffffffff1673ffffffffffffffffffffffffffffffffffffffff168152602001908152602001600020600201600301600081548092919060010191905055505b600560003373ffffffffffffffffffffffffffffffffffffffff1673ffffffffffffffffffffffffffffffffffffffff16815260200190815260200160002060020160030154600481905550505050565b602060405190810160405280600081525090565b602060405190810160405280600081525090565b815481835581811511610ee957818360005260206000209182019101610ee89190610eee565b5b505050565b610f1091905b80821115610f0c576000816000905550600101610ef4565b5090565b905600a165627a7a72305820c40d919aff1a79df3a50f0d0b936abc7bc848dab9eb9e7b2e4641841d952b75a0029",
  "source": "pragma solidity ^0.4.18;\ncontract TimeTrack {\n\n    // Address to represent owner\n    address public employer;\n    address[] public employeeAddresses;\n    uint public employeeIdCount;\n    uint currentBlockTime;\n    uint breakViolationCount;\n\n\n    // Datastructure to represent each employee\n    struct Employee {\n        uint employeeID;\n        address employeeAddress;\n        bool isActive;\n        Card card;\n    }\n\n    struct Card {\n        bool punchAlert; //true => IN, false => OUT\n        uint punchIn;\n        uint punchOut;\n        uint breakViolationCount;\n    }\n\n    //Stores employee struct for each possible address\n    mapping(address => Employee) public employees;\n\n\n    function TimeTrack() public {\n        employer = msg.sender;\n        employeeIdCount = 0;\n        addEmployee();\n    }\n\n    //Make employee inactive in the system\n    function removeAuthorization(address addr) public {\n        require(msg.sender == employer);\n        employees[addr].isActive = false;\n    }\n\n    // add an employee given an address and name\n    function addEmployee() public returns (bool _success)  {\n        require(!employees[msg.sender].isActive);\n        employees[msg.sender] = Employee(employeeIdCount, msg.sender, true, Card(false, 0, 0, 0));\n        employeeIdCount++;\n        employeeAddresses.push(msg.sender);\n        return true;\n    }\n\n    function displayNow() public view returns (uint) {\n     return currentBlockTime;\n    }\n\n    function displayViolation() public view returns (uint) {\n      return breakViolationCount;\n    }\n\n    function breakViolationAlert() public pure returns (string) {\n      return \"Break Rules Violated!!!\";\n    }\n\n    function doPunchIN() public returns (bool _success) {\n        require(\n            (employer != msg.sender) &&\n            (employees[msg.sender].isActive) &&\n            (!employees[msg.sender].card.punchAlert)\n            );\n        currentBlockTime = now;\n        employees[msg.sender].card.punchIn = currentBlockTime;\n        employees[msg.sender].card.punchAlert = true;\n        return true;\n    }\n\n    function doPunchOUT() public returns (bool _success) {\n               require(\n            (employer != msg.sender) &&\n            (employees[msg.sender].isActive) &&\n            (employees[msg.sender].card.punchAlert)\n            );\n        currentBlockTime = now;\n        employees[msg.sender].card.punchOut = currentBlockTime;\n        employees[msg.sender].card.punchAlert = false;\n        calculateBreakViolation();\n        return true;\n    }\n\n    function calculateBreakViolation() private {\n        uint punchOut = employees[msg.sender].card.punchOut;\n        uint punchIn = employees[msg.sender].card.punchIn;\n        require(punchOut > punchIn);\n        uint diff = punchOut - punchIn;\n        if (diff < 1800) {\n            employees[msg.sender].card.breakViolationCount++;\n        }\n        breakViolationCount = employees[msg.sender].card.breakViolationCount;\n    }\n\n    function displayBreakViolation() public view returns(uint) {\n        return employees[msg.sender].card.breakViolationCount;\n    }\n\n    function getEmployees() public view returns(address[])  {\n        return employeeAddresses;\n    }\n\n\n}\n",
  "sourcePath": "/Users/bvenkatachalam/Documents/BlockChain/WurkNow/contracts/TimeTrack.sol",
  "compiler": {
    "name": "solc",
    "version": "0.4.21+commit.dfe3193c.Emscripten.clang"
  },
  "schemaVersion": "2.0.0",
  "updatedAt": "2018-04-12T17:16:18.884Z"
}